:100000000C9464000C94CD070C94FA070C948C00AB
:100010000C948C000C948C000C94FF020C948C00BB
:100020000C948C000C948C000C948C000C948C0020
:100030000C948C000C948C000C948C000C948C0010
:100040000C94E8080C948C000C94AB0B0C94EE0B05
:100050000C948C000C948C000C948C000C948C00F0
:100060000C9470060C948C00000000070002010044
:100070000003040600000000000000000102040864
:100080001020408001020408102001020408102002
:10009000040404040404040402020202020203032E
:1000A00003030303000000002300260029000000D2
:1000B0000000250028002B0000000000240027007D
:1000C0002A00AE028E05A40C11241FBECFEFD8E08B
:1000D000DEBFCDBF12E0A0E0B1E0E8E4FAE102C08B
:1000E00005900D92A639B107D9F724E0A6E9B2E050
:1000F00001C01D92A231B207E1F710E0C8ECD0E0D8
:1001000004C02297FE010E941E0DC23CD107C9F710
:100110000E940C0B0C94220D0C9400000895DC013D
:10012000ED91FC910190F081E02D099486E992E037
:100130000E94AC0242E050E06EE870E080E00E9475
:100140009D0760910101709102014091000186E9D3
:1001500092E00E94420464EF71E080E090E00E942F
:10016000610920E030E040E050E06AE070E086E9BC
:1001700092E00E94B20280E00E94BD0786E992E010
:100180000E94680461E08DE00E94890868EE73E0D7
:1001900080E090E00E94610960E08DE00E948908A3
:1001A00061E086E992E00E94AF0160E086E992E0BA
:1001B0000E94F70189E00E94BF08892BB1F063E03B
:1001C00071E088E693E00E94000A89E00E94BF087F
:1001D0004AE050E0BC0188E693E00E94DA0A60E061
:1001E00086E992E00E94F701E5CF86E992E00C945F
:1001F0002902CF93DF93EC018A30910530F460E35C
:1002000070E088E693E00E948F004AE050E0BE0173
:1002100088E693E0DF91CF910C94D20ACF93DF93DD
:1002200000D000D000D0CDB7DEB7CE0101960E943D
:1002300020036DE171E088E693E00E94000A8C8162
:1002400090E00E94F9006AE370E088E693E00E9483
:100250008F008D8190E00E94F9006AE370E088E6EB
:1002600093E00E948F008E8190E00E94F90069E285
:1002700071E088E693E00E94000A4AE050E06B815A
:1002800088E693E00E94FF0A6FE270E088E693E060
:100290000E948F004AE050E06A8188E693E00E9465
:1002A000FF0A6FE270E088E693E00E948F006981A8
:1002B00070E06053784F4AE050E088E693E00E9497
:1002C000060B88E693E00E94090A26960FB6F8947A
:1002D000DEBF0FBECDBFDF91CF91089561E08DE00D
:1002E0000E94500860E08DE00E94890862E089E089
:1002F0000E94500840E855E260E070E088E693E034
:100300000E94290C6BE371E088E693E00E941D0ACD
:1003100062E370E080E090E00E94610961E086E9BC
:1003200092E00E9485020C940E01CF93DF93EC01C2
:100330008881882319F0662371F006C0662339F09E
:1003400061E084E00E94890881E08A8305C060E062
:1003500084E00E9489081A82DF91CF910895CF939B
:10036000DF93EC018881882319F0662371F006C0C1
:10037000662339F061E080E10E94890881E0898389
:1003800005C060E080E10E9489081982DF91CF9169
:100390000895CF93DF93EC0118821C821B8219828F
:1003A0001A8261E080E10E94500860E0CE010E9464
:1003B000AF0161E084E00E94500860E0CE010E943D
:1003C000950161E081E10E94500860E081E10E94B6
:1003D000890860E087E00E94500860E083E00E94A6
:1003E000500860E082E0DF91CF910C9450080F93A9
:1003F0001F93CF93DF931F92CDB7DEB78C01FC0123
:100400008081882329F0818190E021E0238305C049
:1004100087E069830E94BF0869811816190624F4D1
:1004200081E0F80183830FC0662361F0F8018381C6
:10043000882349F060E0C8010E94AF01F8011382EF
:1004400080E001C080E00F90DF91CF911F910F916C
:100450000895CF92DF92EF92FF920F931F93CF9365
:10046000DF93EC018881882391F068E873E180E0F4
:1004700090E00E94610960E0CE01DF91CF911F9171
:100480000F91FF90EF90DF90CF900C94AF0161E05F
:1004900081E10E9489080E9432096B017C0187E09A
:1004A0000E94BF088C0160E070E0CB0110161106BD
:1004B000B4F4603375478105910588F487E00E94A4
:1004C000BF088C0162E370E080E090E00E94610967
:1004D0000E9432096C197D098E099F09E7CF68E8EF
:1004E00073E180E090E00E94610960E0CE010E942B
:1004F000AF0160E081E1DF91CF911F910F91FF90FB
:10050000EF90DF90CF900C9489081F93CF93DF93E7
:10051000EC01162F0E941A0362E0CE010E94EB0349
:100520008F3FA9F0112319F0CE010E947604CE016D
:100530000E948F04CE010E949D04CE010E947A0485
:1005400061E070E0CE010E94A10481E001C080E082
:10055000DF91CF911F9108950C947A0486E992E07F
:100560000C94C9014115510529F4EAE7F0E08081B6
:100570008F7780836A307105B1F063FF02C088E233
:1005800001C088E06770682B88E190E00FB6F894AE
:10059000A895809360000FBE60936000E0E6F0E0F5
:1005A000808180648083232BA1F483B7817F846062
:1005B00083BFF89483B7816083BF85B7806685BFAA
:1005C0008F7D85BF7894889583B78E7F83BF78941D
:1005D0000EC083B7817F846083BFF89483B7816046
:1005E00083BF7894889583B78E7F83BF7894452B9B
:1005F00029F4EAE7F0E080818068808308951F9203
:100600000F920FB60F9211248F9388E10FB6F894D2
:1006100080936000109260000FBE8F910F900FBE0C
:100620000F901F901895DC01ED91FC910190F081E5
:10063000E02D09948BE992E00E944F0581E0089536
:10064000CF92DF92EF92FF920F931F93CF93DF939E
:10065000EC0168E670E08BE992E00E94760563E0C9
:1006600070E08BE992E00E9413038BE992E00E9414
:100670008B0547E050E068E670E08BE992E00E946D
:1006800069058BE992E00E94C0048F77982F9295BC
:100690009F701AEF082F919F000D11248BE992E0B3
:1006A0000E94C0049C013327F4E035952795FA9504
:1006B000E1F7F82E129FF00C11248BE992E00E94D2
:1006C000C0049C013327A4E035952795AA95E1F74E
:1006D000E82E129FE00C11248BE992E00E94C004E6
:1006E0009C013327B4E035952795BA95E1F7D82ECC
:1006F000129FD00C11248BE992E00E94C0048BE978
:1007000092E00E94C0049C01332794E03595279520
:100710009A95E1F7C82E129FC00C11248BE992E044
:100720000E94C0049C01332744E0359527954A95E3
:10073000E1F7129F800D11248883C982DA82EB824F
:10074000FC820D83CE01DF91CF911F910F91FF901D
:10075000EF90DF90CF900895CF92DF92EF92FF92CB
:100760000F931F93CF93DF931F92CDB7DEB7062F62
:10077000F72E142F68E670E08BE992E029830E943F
:1007800076052981622F70E08BE992E00E941303C5
:100790008BE992E00E948B05412F68E68BE992E09D
:1007A0000E946605E02EC02EDF2C8C2D8E1981173D
:1007B00040F48BE992E00E94C004F60181936F013E
:1007C000F4CF0F90DF91CF911F910F91FF90EF9099
:1007D000DF90CF900895CF93DF931F92CDB7DEB710
:1007E000262F41E0BE016F5F7F4F0E94AC038981DD
:1007F0000F90DF91CF910895EF92FF920F931F9387
:10080000CF93DF9300D0CDB7DEB7062F122F68E667
:1008100070E08BE992E049835A830E947605602F4D
:1008200070E08BE992E00E9413034981042FE42ECB
:100830005A81F52E8E2D801B811740F4F7016191AE
:100840007F018BE992E00E941005F4CF8BE992E0E2
:100850000F900F90DF91CF911F910F91FF90EF902C
:100860000C948B05CF93DF931F92CDB7DEB74983EE
:1008700021E0AE014F5F5F4F0E94FC030F90DF91BC
:10088000CF9108951F93CF93DF93EC01142F462F40
:1008900060E10E943204412F61E1CE010E943204E6
:1008A00061E0CE010E94EB03482F4F7B426061E084
:1008B000CE010E9432046FE0CE010E94EB03482F6C
:1008C00042686FE0CE01DF91CF911F910C9432040A
:1008D000CF93DF93EC0161E00E94EB03482F4F7B45
:1008E00061E0CE01DF91CF910C94320448E560E0E5
:1008F0000C9432041F93CF93DF93EC0160E00E94CD
:10090000EB03182F40E061E0CE010E94320481E049
:10091000111101C080E0DF91CF911F910895CF9315
:10092000DF93EC016FE00E94EB03482F48636FE018
:10093000CE01DF91CF910C94320440E062E00C9440
:1009400032040F931F93CF93DF93EC018B0160E090
:100950000E94EB03482F012B11F44F7701C0406830
:1009600060E0CE01DF91CF911F910F910C94320482
:100970008091CB0290E02091CC02821B91090895D6
:100980002091CC028091CB02281750F4E22FF0E0A6
:10099000E353FD4F808190E02F5F2093CC020895B8
:1009A0008FEF9FEF0895E091CC028091CB02E81782
:1009B00030F4F0E0E353FD4F808190E008958FEF35
:1009C0009FEF08950895CF92DF92EF92FF920F93D9
:1009D0001F93CF93DF937C01CB018A012091A70263
:1009E000222389F0EB016B01C40ED51ECC15DD0569
:1009F00069F06991D701ED91FC910190F081E02DB2
:100A0000C7010995F3CF642F0E944706C801DF9103
:100A1000CF911F910F91FF90EF90DF90CF900895AD
:100A2000CF93DF931F92CDB7DEB769832091A702E2
:100A30002223D1F02091A802203240F021E030E0C2
:100A4000FC013383228380E090E015C08091A902ED
:100A5000E82FF0E0E655FD4F998190838F5F8093FA
:100A6000A9028093A80205C061E0CE0101960E9410
:100A7000470681E090E00F90DF91CF910895FC014F
:100A80001382128248EE53E060E070E044835583A5
:100A90006683778389E792E091838083089510923B
:100AA000CC021092CB021092A9021092A8020C94D0
:100AB0009205862F413208F040E26DEC72E00E9410
:100AC000B0051092CC028093CB02089521E00C94E3
:100AD000590521E00C94590581E08093A7026093A9
:100AE000CA021092A9021092A80208950C946C05F3
:100AF0000F93062F21E04091A8026AEA72E08091EC
:100B0000CA020E94F4051092A9021092A802109243
:100B1000A7020F91089561E00C9478058BE992E0AB
:100B20000C943F0510925A0381E080935803109271
:100B3000570361E082E10E94890861E083E10E943D
:100B40008908E9EBF0E080818E7F808380818D7F52
:100B5000808380E28093B80085E48093BC00089590
:100B6000413208F03FC090915A039111FCCF91E0BF
:100B700090935A03209358032FEF2093ED02109285
:100B80003203240F2093310390935903909159031A
:100B9000880F892B8093590380915703813041F44A
:100BA00010925703809159038093BB0085EC01C0DC
:100BB00085EE8093BC0080915A038130E1F38091EF
:100BC0003203841710F44091320323E333E0FB0136
:100BD000D9018A2F821B841718F48D918193F9CF44
:100BE000842F089580E008950F93413208F046C0A5
:100BF00090915A039111FCCF92E090935A03009385
:100C000058039FEF9093ED0210923203409331030B
:100C1000FB0163E373E0DB019A2F961B941718F432
:100C200091919D93F9CF1092590390915903880F98
:100C3000892B8093590380915703813041F410929E
:100C40005703809159038093BB0085EC01C085EE6A
:100C50008093BC00222321F080915A038230E1F37B
:100C60008091ED028F3F61F08091ED02803251F072
:100C70008091ED02803341F483E007C081E005C03C
:100C800080E003C082E001C084E00F9108956132EA
:100C900098F420915A03243089F460930F03FC01E7
:100CA00081E193E0DC012A2F281B261718F42191FB
:100CB0002D93F9CF80E0089581E0089582E00895B2
:100CC00085ED8093BC008091BC0084FDFCCF109228
:100CD0005A03089585EC8093BC0010925A0308953E
:100CE0001F920F920FB60F9211242F933F934F93A1
:100CF0005F936F937F938F939F93AF93BF93EF9384
:100D0000FF938091B900887F803609F49CC068F514
:100D1000883209F45BC090F4803109F454C038F48F
:100D2000882309F4F5C0883009F44DC0F5C0883136
:100D300009F44CC0803209F45DC0EEC0803409F47F
:100D400068C048F4803309F455C0883309F0E4C022
:100D50008093ED02A8C0803509F44FC0883509F4AE
:100D60005DC0883409F0D8C0D5C0883909F4C6C040
:100D7000A8F4883709F467C038F4883609F463C0EA
:100D8000803709F460C0C8C0883809F4B7C080391A
:100D900009F45FC0803809F0BFC05BC0803B09F434
:100DA00085C038F4803A09F466C0883A09F47EC0F8
:100DB000B3C0803C09F4A6C0883C09F4A3C0883BBA
:100DC00009F489C0A9C08091590310C090913203E1
:100DD00080913103981770F5E091320381E08E0F16
:100DE00080933203F0E0ED5CFC4F80818093BB0088
:100DF00085EC85C08093ED028DC0E091320381E0E7
:100E00008E0F809332038091BB00F0E0ED5CFC4FCD
:100E1000808390913203809131036DC0E091320361
:100E200081E08E0F809332038091BB00F0E0ED5C97
:100E3000FC4F80838091580381116CC081E08093C6
:100E4000570384EA60C083E080935A031092EE0255
:100E5000CFCF8091EE02803208F050C0E091EE02D8
:100E600081E08E0F8093EE028091BB00F0E0E151B3
:100E7000FD4F8083BDCF8091EE02803230F4E0914F
:100E8000EE02F0E0E151FD4F10820E946006609199
:100E9000EE0270E0E0915303F09154038FEE92E084
:100EA00009951092EE020E946A0636C084E0809393
:100EB0005A031092100310920F03E0915503F09122
:100EC0005603099580910F03811105C081E080933D
:100ED0000F0310921103E091100381E08E0F8093B5
:100EE0001003F0E0EF5EFC4F80818093BB00909197
:100EF000100380910F03981708F47ACF85E8809348
:100F0000BC000AC085EC8093BC0010925A0304C058
:100F10001092ED020E946006FF91EF91BF91AF9198
:100F20009F918F917F916F915F914F913F912F9101
:100F30000F900FBE0F901F9018958230E8F4E82FA5
:100F4000F0E0EE0FFF1FE55AFC4F718360838130A4
:100F500041F0809169008C7F842B80936900E89A2E
:100F6000089580916900440F551F440F551F837FDA
:100F7000842B80936900E99A0895823068F4813067
:100F800011F0E89801C0E998E82FF0E0EE0FFF1F9C
:100F9000E55AFC4F1182108208951F920F920FB6EE
:100FA0000F9211242F933F934F935F936F937F93EF
:100FB0008F939F93AF93BF93EF93FF9380915B03C6
:100FC00090915C03892B29F0E0915B03F0915C0325
:100FD0000995FF91EF91BF91AF919F918F917F9173
:100FE0006F915F914F913F912F910F900FBE0F9096
:100FF0001F9018951F920F920FB60F9211242F93E6
:101000003F934F935F936F937F938F939F93AF9390
:10101000BF93EF93FF9380915D0390915E03892BC3
:1010200029F0E0915D03F0915E030995FF91EF9146
:10103000BF91AF919F918F917F916F915F914F91F0
:101040003F912F910F900FBE0F901F9018958330F6
:1010500081F028F4813099F08230A1F00895863033
:10106000A9F08730B9F08430D1F4809180008F7D71
:1010700003C0809180008F7780938000089584B5AD
:101080008F7702C084B58F7D84BD08958091B000B4
:101090008F7703C08091B0008F7D8093B00008955A
:1010A000CF93DF9390E0FC01E458FF4F2491FC01C3
:1010B000E057FF4F8491882349F190E0880F991FF2
:1010C000FC01E854FF4FA591B49182559F4FFC015C
:1010D000C591D4919FB7611108C0F8948C91209567
:1010E00082238C93888182230AC0623051F4F89461
:1010F0008C91322F309583238C938881822B888327
:1011000004C0F8948C91822B8C939FBFDF91CF9178
:1011100008950F931F93CF93DF931F92CDB7DEB740
:10112000282F30E0F901E859FF4F8491F901E45884
:10113000FF4F1491F901E057FF4F04910023C9F0CC
:10114000882321F069830E9427086981E02FF0E05D
:10115000EE0FFF1FE255FF4FA591B4919FB7F89492
:101160008C91611103C01095812301C0812B8C9358
:101170009FBF0F90DF91CF911F910F910895CF9353
:10118000DF93282F30E0F901E859FF4F8491F901EE
:10119000E458FF4FD491F901E057FF4FC491CC239D
:1011A00091F081110E942708EC2FF0E0EE0FFF1F55
:1011B000EC55FF4FA591B4912C912D2381E090E047
:1011C00021F480E002C080E090E0DF91CF910895AB
:1011D0001F920F920FB60F9211242F933F938F936C
:1011E0009F93AF93BF938091600390916103A0910F
:1011F0006203B091630330915F0326E0230F2D3724
:1012000020F40296A11DB11D05C029E8230F039605
:10121000A11DB11D20935F03809360039093610330
:10122000A0936203B093630380916403909165037C
:10123000A0916603B09167030196A11DB11D809333
:10124000640390936503A0936603B0936703BF9113
:10125000AF919F918F913F912F910F900FBE0F9063
:101260001F9018952FB7F8946091600370916103F7
:1012700080916203909163032FBF08953FB7F89464
:101280008091640390916503A0916603B091670318
:1012900026B5A89B05C02F3F19F00196A11DB11DD1
:1012A0003FBF6627782F892F9A2F620F711D811DEE
:1012B000911D43E0660F771F881F991F4A95D1F74C
:1012C0000895CF92DF92EF92FF92CF93DF936B015D
:1012D0007C010E943E09EB01C114D104E104F10438
:1012E00079F00E943E096C1B7D0B683E7340A0F3B1
:1012F00081E0C81AD108E108F108C851DC4FECCFF1
:10130000DF91CF91FF90EF90DF90CF900895789488
:1013100084B5826084BD84B5816084BD85B58260FA
:1013200085BD85B5816085BDEEE6F0E08081816098
:101330008083E1E8F0E01082808182608083808198
:1013400081608083E0E8F0E0808181608083E1EB70
:10135000F0E0808184608083E0EBF0E08081816058
:101360008083EAE7F0E0808184608083808182600E
:1013700080838081816080838081806880831092F7
:10138000C1000895CF92DF92EF92FF920F931F93C7
:10139000CF93DF936C017A01EB01E60EF71E00E0BC
:1013A00010E0CE15DF0561F06991D601ED91FC9159
:1013B0000190F081E02DC6010995080F191FF1CFAA
:1013C000C801DF91CF911F910F91FF90EF90DF90B7
:1013D000CF9008956115710581F0DB010D9000201B
:1013E000E9F7AD0141505109461B570BDC01ED9166
:1013F000FC910280F381E02D099480E090E0089553
:101400000C94EA09DC01ED91FC910190F081E02D52
:1014100009940F931F93CF93DF93EC016DE00E942B
:10142000020A8C016AE0CE010E94020A800F911F1D
:10143000DF91CF911F910F9108950F931F93CF9339
:10144000DF93EC010E94EA098C01CE010E94090A97
:10145000800F911FDF91CF911F910F9108958F926F
:101460009F92AF92BF92CF92DF92EF92FF920F9333
:101470001F93CF93DF93CDB7DEB7A1970FB6F89444
:10148000DEBF0FBECDBF7C01C42EE52FCB01D22E17
:1014900019A221E02D1510F02AE0D22E8E010F5D49
:1014A0001F4F8D2C912CA12CB12C6C2D7E2FA501C2
:1014B00094010E94FA0C8C2DD29E801911240150A7
:1014C00011098A3014F4805D01C0895CF8018083C1
:1014D000211531054105510521F0C22EE32FCA0126
:1014E000E4CFB801C7010E94EA09A1960FB6F894AB
:1014F000DEBF0FBECDBFDF91CF911F910F91FF9047
:10150000EF90DF90CF90BF90AF909F908F90089515
:10151000CF92DF92EF92FF920F931F93CF93DF93BF
:10152000EC016A017B012115310579F4E881F9812B
:101530000190F081E02D642FDF91CF911F910F91E9
:10154000FF90EF90DF90CF9009942A303105E9F4B5
:1015500077FF1AC06DE20E94020A8C0144275527CA
:10156000BA014C195D096E097F092AE0CE010E947B
:101570002F0A800F911FDF91CF911F910F91FF9044
:10158000EF90DF90CF9008952AE0B701A601CE0139
:10159000DF91CF911F910F91FF90EF90DF90CF904F
:1015A0000C942F0A9A01AB01662757FD6095762FA0
:1015B0000C94880A0F931F93CF93DF93EC019A0149
:1015C000AB01662757FD6095762F0E94880A8C0133
:1015D000CE010E94090A800F911FDF91CF911F91C8
:1015E0000F9108952115310541F4DC01ED91FC9135
:1015F0000190F081E02D642F09940C942F0A9A0138
:10160000462F50E060E070E00C94F20A9A01AB01C2
:1016100060E070E00C94F20A0E9487090E946E015B
:10162000C5EEDBE00E9496002097E1F30E94E50BF7
:10163000F9CFFC0124853585F901E05CFF4F8081FD
:101640009181329620813181821B930B8F73992770
:101650000895FC0184859585FC01E05CFF4F408185
:1016600051813296208131814217530741F0019018
:10167000F081E02DE80FF91F808190E008958FEF51
:101680009FEF0895FC0184859585FC01E05CFF4F88
:10169000408151813296208131814217530779F080
:1016A000A081B181A80FB91F8C91208131812F5F5A
:1016B0003F4F2F7333273183208390E008958FEFBE
:1016C0009FEF0895FC0181A1882329F0A489B589A1
:1016D0008C9186FFFBCF11A20895CF93DF93FC017D
:1016E00026853785D901A05CBF4F8D919C911197BC
:1016F00001968F739927E901CE5BDF4F48815981AD
:1017000084179507D9F30D90BC91A02DA20FB31F9C
:101710006C93A685B785A05CBF4F11969C938E9362
:10172000A689B7892C9181E090E0078C02C0880FD0
:10173000991F0A94E2F7282B2C9381E081A3048857
:10174000F589E02D80818064808381E090E0DF91E5
:10175000CF91089508951F920F920FB60F92112402
:101760002F933F934F938F939F93EF93FF9380918A
:10177000C00082FD1CC04091C60080910E04909173
:101780000F0401968F739927209110043091110452
:101790008217930771F0E0910E04F0910F04E25369
:1017A000FC4F408390930F0480930E0402C08091FD
:1017B000C600FF91EF919F918F914F913F912F9193
:1017C0000F900FBE0F901F90189588E693E00E942F
:1017D000190B892B11F00C94AA0B08951F920F92EC
:1017E0000FB60F9211242F933F938F939F93EF93F4
:1017F000FF932091CA033091CB038091CC03909149
:10180000CD032817390731F48091C1008F7D809373
:10181000C10014C0E091CC03F091CD03E657FC4F1A
:1018200020818091CC039091CD0301968F739927ED
:101830009093CD038093CC032093C600FF91EF914A
:101840009F918F913F912F910F900FBE0F901F90FE
:101850001895CF92DF92EF92FF92CF93DF93EC0136
:101860006A017B01EC89FD8981E090E008A002C05B
:10187000880F991F0A94E2F7808360E874E88EE18C
:1018800090E0A70196010E94FA0C2150310941090C
:1018900051095695479537952795211580E13807C9
:1018A00098F0EC89FD89108260E472E48FE090E0AA
:1018B000A70196010E94FA0C2150310941095109F2
:1018C0005695479537952795E889F9893083EA89B0
:1018D000FB89208319A2EE89FF89408181E090E095
:1018E0009C010C8C02C0220F331F0A94E2F7422B9A
:1018F0004083EE89FF8940819C010D8C02C0220F3C
:10190000331F0A94E2F7422B4083EE89FF8940811E
:101910009C010E8C02C0220F331F0A94E2F7422B67
:101920004083EE89FF8920810F8C02C0880F991FA8
:101930000A94E2F7809582238083DF91CF91FF9014
:10194000EF90DF90CF90089510926B0310926A038E
:1019500088EE93E0A0E0B0E080936C0390936D0379
:10196000A0936E03B0936F0389E892E090936903AC
:10197000809368038EEC93E09093750380937403D7
:101980008AE893E0909377038093760385EC90E068
:10199000909379038093780384EC90E090937B0399
:1019A00080937A0380EC90E090937D0380937C0396
:1019B00081EC90E090937F0380937E0382EC90E033
:1019C000909381038093800386EC90E0909383034F
:1019D0008093820384E08093840383E08093850373
:1019E00087E08093860385E08093870381E080937E
:1019F00088030895A1E21A2EAA1BBB1BFD010DC08E
:101A0000AA1FBB1FEE1FFF1FA217B307E407F507AE
:101A100020F0A21BB30BE40BF50B661F771F881F8A
:101A2000991F1A9469F760957095809590959B0120
:101A3000AC01BD01CF010895EE0FFF1F0590F49199
:081A4000E02D0994F894FFCF9A
:101A480006040050696E20393A200025643A25645E
:101A58003A2564002573202564202564004F6B2CEB
:101A68002054696D65203D20002C20446174652058
:101A780028442F4D2F5929203D200053746172743A
:101A8800696E672E2E2E00436F6E74726F6C203154
:101A98003A20307800436F6E74726F6C20323A20AF
:101AA800307800436F6E74726F6C20333A20307850
:101AB800005365636F6E64733A20004D696E7574E8
:101AC80065733A2000486F7572733A200057656550
:101AD8006B20446179733A20004D6F6E7468733AD5
:101AE800200059656172733A20004D696E757465FE
:101AF80020416C61726D3A2000486F757220416C0C
:101B080061726D3A200044617920416C61726D3ACE
:101B180020005765656B64617920416C61726D3A8C
:101B280020004F66667365743A20307800544D5231
:101B38005F434C4B4F55545F4354524C3A203078D6
:101B480000544D525F415F465245515F4354524CD9
:101B58003A20307800544D525F415F5245473A2051
:101B6800307800544D525F425F465245515F4354AE
:101B7800524C3A20307800544D525F425F524547EC
:101B88003A203078004A616E00466562004D617205
:101B980000417072004D6179004A756E004A756C9B
:101BA8000041756700536570004F6374004E6F768F
:101BB8000044656300000000001005E304B804C099
:101BC80004D304E204000000006D0BC209190B42A3
:061BD8000B290B620B005B
:00000001FF
