:100000000C9464000C94BD070C94EA070C948C00CB
:100010000C948C000C948C000C94EF020C948C00CB
:100020000C948C000C948C000C948C000C948C0020
:100030000C948C000C948C000C948C000C948C0010
:100040000C94D8080C948C000C94830B0C94C60B65
:100050000C948C000C948C000C948C000C948C00F0
:100060000C9460060C948C00000000070002010054
:100070000003040600000000000000000102040864
:100080001020408001020408102001020408102002
:10009000040404040404040402020202020203032E
:1000A00003030303000000002300260029000000D2
:1000B0000000250028002B0000000000240027007D
:1000C0002A009E027E057C0C11241FBECFEFD8E0D3
:1000D000DEBFCDBF12E0A0E0B1E0E8EFF9E102C081
:1000E00005900D92AE38B107D9F724E0AEE8B2E042
:1000F00001C01D92AA30B207E1F710E0C8ECD0E0D1
:1001000004C02297FE010E94F60CC23CD107C9F739
:100110000E94E40A0C94FA0C0C9400000895DC018F
:10012000ED91FC910190F081E02D09948EE892E030
:100130000E949C0242E050E06EE870E080E00E9485
:100140008D076091010170910201409100018EE8DC
:1001500092E00E94320464EF71E080E090E00E943F
:10016000510920E030E040E050E06AE070E08EE8C5
:1001700092E00E94A20280E00E94AD078EE892E029
:100180000E94580461E08DE00E94790861E08EE8E9
:1001900092E00E949F0162E370E080E090E00E94A4
:1001A000510960E08DE00E94790860E08EE892E0FD
:1001B0000E94E70189E00E94AF08892B31F060E0DE
:1001C0008EE892E00E94E701F5CF8EE892E00C9471
:1001D0001902CF93DF93EC018A30910530F460E38C
:1001E00070E080E693E00E948F004AE050E0BE019C
:1001F00080E693E0DF91CF910C94C20ACF93DF9316
:1002000000D000D000D0CDB7DEB7CE0101960E945D
:10021000100365E171E080E693E00E94F0098C81B3
:1002200090E00E94E9006AE370E080E693E00E94BB
:100230008F008D8190E00E94E9006AE370E080E623
:1002400093E00E948F008E8190E00E94E90061E2BD
:1002500071E080E693E00E94F0094AE050E06B8193
:1002600080E693E00E94D70A6FE270E080E693E0B8
:100270000E948F004AE050E06A8180E693E00E948D
:10028000D70A6FE270E080E693E00E948F006981F8
:1002900070E06053784F4AE050E080E693E00E94BF
:1002A000DE0A80E693E00E94F90926960FB6F894DC
:1002B000DEBF0FBECDBFDF91CF91089561E08DE02D
:1002C0000E94400862E089E00E94400860E08DE002
:1002D0000E94790840E855E260E070E080E693E033
:1002E0000E94010C63E371E080E693E00E940D0A36
:1002F00062E370E080E090E00E94510961E08EE8E6
:1003000092E00E9475020C94FE00CF93DF93EC0103
:100310008881882319F0662371F006C0662339F0BE
:1003200061E084E00E94790881E08A8305C060E092
:1003300084E00E9479081A82DF91CF910895CF93CB
:10034000DF93EC018881882319F0662371F006C0E1
:10035000662339F061E080E10E94790881E08983B9
:1003600005C060E080E10E9479081982DF91CF9199
:100370000895CF93DF93EC0118821C821B821982AF
:100380001A8261E080E10E94400860E0CE010E9494
:100390009F0161E084E00E94400860E0CE010E947D
:1003A000850161E081E10E94400860E081E10E94F6
:1003B000790860E087E00E94400860E083E00E94E6
:1003C000400860E082E0DF91CF910C9440080F93E9
:1003D0001F93CF93DF931F92CDB7DEB78C01FC0143
:1003E0008081882329F0818190E021E0238305C06A
:1003F00087E069830E94AF0869811816190624F402
:1004000081E0F80183830FC0662361F0F8018381E6
:10041000882349F060E0C8010E949F01F80113821F
:1004200080E001C080E00F90DF91CF911F910F918C
:100430000895CF92DF92EF92FF920F931F93CF9385
:10044000DF93EC018881882391F068E873E180E014
:1004500090E00E94510960E0CE01DF91CF911F91A1
:100460000F91FF90EF90DF90CF900C949F0161E08F
:1004700081E10E9479080E9422096B017C0187E0DA
:100480000E94AF088C0160E070E0CB0110161106ED
:10049000B4F4603375478105910588F487E00E94C4
:1004A000AF088C0162E370E080E090E00E945109A7
:1004B0000E9422096C197D098E099F09E7CF68E81F
:1004C00073E180E090E00E94510960E0CE010E945B
:1004D0009F0160E081E1DF91CF911F910F91FF902B
:1004E000EF90DF90CF900C9479081F93CF93DF9318
:1004F000EC01162F0E940A0362E0CE010E94DB038A
:100500008F3FA9F0112319F0CE010E946604CE019D
:100510000E947F04CE010E948D04CE010E946A04D5
:1005200061E070E0CE010E94910481E001C080E0B2
:10053000DF91CF911F9108950C946A048EE892E0A8
:100540000C94B9014115510529F4EAE7F0E08081E6
:100550008F7780836A307105B1F063FF02C088E253
:1005600001C088E06770682B88E190E00FB6F894CE
:10057000A895809360000FBE60936000E0E6F0E015
:10058000808180648083232BA1F483B7817F846082
:1005900083BFF89483B7816083BF85B7806685BFCA
:1005A0008F7D85BF7894889583B78E7F83BF78943D
:1005B0000EC083B7817F846083BFF89483B7816066
:1005C00083BF7894889583B78E7F83BF7894452BBB
:1005D00029F4EAE7F0E080818068808308951F9223
:1005E0000F920FB60F9211248F9388E10FB6F894F3
:1005F00080936000109260000FBE8F910F900FBE2D
:100600000F901F901895DC01ED91FC910190F08105
:10061000E02D099483E992E00E943F0581E008956E
:10062000CF92DF92EF92FF920F931F93CF93DF93BE
:10063000EC0168E670E083E992E00E94660563E001
:1006400070E083E992E00E94030383E992E00E9454
:100650007B0547E050E068E670E083E992E00E94A5
:10066000590583E992E00E94B0048F77982F929504
:100670009F701AEF082F919F000D112483E992E0DB
:100680000E94B0049C013327F4E035952795FA9534
:10069000E1F7F82E129FF00C112483E992E00E94FA
:1006A000B0049C013327A4E035952795AA95E1F77E
:1006B000E82E129FE00C112483E992E00E94B0041E
:1006C0009C013327B4E035952795BA95E1F7D82EEC
:1006D000129FD00C112483E992E00E94B00483E9B8
:1006E00092E00E94B0049C01332794E03595279551
:1006F0009A95E1F7C82E129FC00C112483E992E06D
:100700000E94B0049C01332744E0359527954A9513
:10071000E1F7129F800D11248883C982DA82EB826F
:10072000FC820D83CE01DF91CF911F910F91FF903D
:10073000EF90DF90CF900895CF92DF92EF92FF92EB
:100740000F931F93CF93DF931F92CDB7DEB7062F82
:10075000F72E142F68E670E083E992E029830E9467
:1007600066052981622F70E083E992E00E9403030D
:1007700083E992E00E947B05412F68E683E992E0DD
:100780000E945605E02EC02EDF2C8C2D8E1981176D
:1007900040F483E992E00E94B004F60181936F0176
:1007A000F4CF0F90DF91CF911F910F91FF90EF90B9
:1007B000DF90CF900895CF93DF931F92CDB7DEB730
:1007C000262F41E0BE016F5F7F4F0E949C0389810D
:1007D0000F90DF91CF910895EF92FF920F931F93A7
:1007E000CF93DF9300D0CDB7DEB7062F122F68E688
:1007F00070E083E992E049835A830E946605602F86
:1008000070E083E992E00E9403034981042FE42E03
:100810005A81F52E8E2D801B811740F4F7016191CE
:100820007F0183E992E00E940005F4CF83E992E022
:100830000F900F90DF91CF911F910F91FF90EF904C
:100840000C947B05CF93DF931F92CDB7DEB749831E
:1008500021E0AE014F5F5F4F0E94EC030F90DF91EC
:10086000CF9108951F93CF93DF93EC01142F462F60
:1008700060E10E942204412F61E1CE010E94220426
:1008800061E0CE010E94DB03482F4F7B426061E0B4
:10089000CE010E9422046FE0CE010E94DB03482FAC
:1008A00042686FE0CE01DF91CF911F910C9422043A
:1008B000CF93DF93EC0161E00E94DB03482F4F7B75
:1008C00061E0CE01DF91CF910C94220448E560E015
:1008D0000C9422041F93CF93DF93EC0160E00E94FD
:1008E000DB03182F40E061E0CE010E94220481E08A
:1008F000111101C080E0DF91CF911F910895CF9336
:10090000DF93EC016FE00E94DB03482F48636FE048
:10091000CE01DF91CF910C94220440E062E00C9470
:1009200022040F931F93CF93DF93EC018B0160E0C0
:100930000E94DB03482F012B11F44F7701C0406860
:1009400060E0CE01DF91CF911F910F910C942204B2
:100950008091C30290E02091C402821B9109089506
:100960002091C4028091C302281750F4E22FF0E0D6
:10097000EB53FD4F808190E02F5F2093C4020895D8
:100980008FEF9FEF0895E091C4028091C302E817B2
:1009900030F4F0E0EB53FD4F808190E008958FEF4D
:1009A0009FEF08950895CF92DF92EF92FF920F93F9
:1009B0001F93CF93DF937C01CB018A0120919F028B
:1009C000222389F0EB016B01C40ED51ECC15DD0589
:1009D00069F06991D701ED91FC910190F081E02DD2
:1009E000C7010995F3CF642F0E943706C801DF9134
:1009F000CF911F910F91FF90EF90DF90CF900895CE
:100A0000CF93DF931F92CDB7DEB7698320919F020A
:100A10002223D1F02091A002203240F021E030E0EA
:100A2000FC013383228380E090E015C08091A10215
:100A3000E82FF0E0EE55FD4F998190838F5F809312
:100A4000A1028093A00205C061E0CE0101960E9440
:100A5000370681E090E00F90DF91CF910895FC017F
:100A60001382128248EE53E060E070E044835583C5
:100A70006683778381E792E0918380830895109263
:100A8000C4021092C3021092A1021092A0020C9410
:100A90008205862F413208F040E265EC72E00E9448
:100AA000A0051092C4028093C302089521E00C9423
:100AB000490521E00C94490581E080939F026093F1
:100AC000C2021092A1021092A00208950C945C053B
:100AD0000F93062F21E04091A00262EA72E080911C
:100AE000C2020E94E4051092A1021092A00210928C
:100AF0009F020F91089561E00C94680583E992E0EC
:100B00000C942F051092520381E0809350031092B1
:100B10004F0361E082E10E94790861E083E10E9475
:100B20007908E9EBF0E080818E7F808380818D7F82
:100B3000808380E28093B80085E48093BC000895B0
:100B4000413208F03FC0909152039111FCCF91E0E7
:100B500090935203209350032FEF2093E5021092BD
:100B60002A03240F2093290390935103909151035A
:100B7000880F892B8093510380914F03813041F47A
:100B800010924F03809151038093BB0085EC01C00C
:100B900085EE8093BC00809152038130E1F3809117
:100BA0002A03841710F440912A032BE233E0FB015F
:100BB000D9018A2F821B841718F48D918193F9CF64
:100BC000842F089580E008950F93413208F046C0C5
:100BD000909152039111FCCF92E0909352030093B5
:100BE00050039FEF9093E50210922A03409329034C
:100BF000FB016BE273E0DB019A2F961B941718F44C
:100C000091919D93F9CF1092510390915103880FC8
:100C1000892B8093510380914F03813041F41092CE
:100C20004F03809151038093BB0085EC01C085EE9A
:100C30008093BC00222321F0809152038230E1F3A3
:100C40008091E5028F3F61F08091E502803251F0A2
:100C50008091E502803341F483E007C081E005C064
:100C600080E003C082E001C084E00F91089561320A
:100C700098F420915203243089F460930703FC0117
:100C800089E093E0DC012A2F281B261718F4219114
:100C90002D93F9CF80E0089581E0089582E00895D2
:100CA00085ED8093BC008091BC0084FDFCCF109248
:100CB0005203089585EC8093BC001092520308956E
:100CC0001F920F920FB60F9211242F933F934F93C1
:100CD0005F936F937F938F939F93AF93BF93EF93A4
:100CE000FF938091B900887F803609F49CC068F535
:100CF000883209F45BC090F4803109F454C038F4B0
:100D0000882309F4F5C0883009F44DC0F5C0883156
:100D100009F44CC0803209F45DC0EEC0803409F49F
:100D200068C048F4803309F455C0883309F0E4C042
:100D30008093E502A8C0803509F44FC0883509F4D6
:100D40005DC0883409F0D8C0D5C0883909F4C6C060
:100D5000A8F4883709F467C038F4883609F463C00A
:100D6000803709F460C0C8C0883809F4B7C080393A
:100D700009F45FC0803809F0BFC05BC0803B09F454
:100D800085C038F4803A09F466C0883A09F47EC018
:100D9000B3C0803C09F4A6C0883C09F4A3C0883BDA
:100DA00009F489C0A9C08091510310C090912A0311
:100DB00080912903981770F5E0912A0381E08E0F46
:100DC00080932A03F0E0E55DFC4F80818093BB00B7
:100DD00085EC85C08093E5028DC0E0912A0381E017
:100DE0008E0F80932A038091BB00F0E0E55DFC4FFD
:100DF000808390912A03809129036DC0E0912A039A
:100E000081E08E0F80932A038091BB00F0E0E55DC6
:100E1000FC4F80838091500381116CC081E08093EE
:100E20004F0384EA60C083E0809352031092E6028D
:100E3000CFCF8091E602803208F050C0E091E60208
:100E400081E08E0F8093E6028091BB00F0E0E951D3
:100E5000FD4F8083BDCF8091E602803230F4E09177
:100E6000E602F0E0E951FD4F10820E9450066091C9
:100E7000E60270E0E0914B03F0914C0387EE92E0C4
:100E800009951092E6020E945A0636C084E08093CB
:100E900052031092080310920703E0914D03F09162
:100EA0004E03099580910703811105C081E080936D
:100EB000070310920903E091080381E08E0F8093ED
:100EC0000803F0E0E75FFC4F80818093BB009091C6
:100ED000080380910703981708F47ACF85E8809378
:100EE000BC000AC085EC8093BC001092520304C081
:100EF0001092E5020E945006FF91EF91BF91AF91D1
:100F00009F918F917F916F915F914F913F912F9121
:100F10000F900FBE0F901F9018958230E8F4E82FC5
:100F2000F0E0EE0FFF1FED5AFC4F718360838130BC
:100F300041F0809169008C7F842B80936900E89A4E
:100F4000089580916900440F551F440F551F837FFA
:100F5000842B80936900E99A0895823068F4813087
:100F600011F0E89801C0E998E82FF0E0EE0FFF1FBC
:100F7000ED5AFC4F1182108208951F920F920FB606
:100F80000F9211242F933F934F935F936F937F930F
:100F90008F939F93AF93BF93EF93FF9380915303EE
:100FA00090915403892B29F0E0915303F09154035D
:100FB0000995FF91EF91BF91AF919F918F917F9193
:100FC0006F915F914F913F912F910F900FBE0F90B6
:100FD0001F9018951F920F920FB60F9211242F9306
:100FE0003F934F935F936F937F938F939F93AF93B1
:100FF000BF93EF93FF938091550390915603892BF4
:1010000029F0E0915503F09156030995FF91EF9176
:10101000BF91AF919F918F917F916F915F914F9110
:101020003F912F910F900FBE0F901F901895833016
:1010300081F028F4813099F08230A1F00895863053
:10104000A9F08730B9F08430D1F4809180008F7D91
:1010500003C0809180008F7780938000089584B5CD
:101060008F7702C084B58F7D84BD08958091B000D4
:101070008F7703C08091B0008F7D8093B00008957A
:10108000CF93DF9390E0FC01E458FF4F2491FC01E3
:10109000E057FF4F8491882349F190E0880F991F12
:1010A000FC01E854FF4FA591B49182559F4FFC017C
:1010B000C591D4919FB7611108C0F8948C91209587
:1010C00082238C93888182230AC0623051F4F89481
:1010D0008C91322F309583238C938881822B888347
:1010E00004C0F8948C91822B8C939FBFDF91CF9199
:1010F00008950F931F93CF93DF931F92CDB7DEB761
:10110000282F30E0F901E859FF4F8491F901E458A4
:10111000FF4F1491F901E057FF4F04910023C9F0EC
:10112000882321F069830E9417086981E02FF0E08D
:10113000EE0FFF1FE255FF4FA591B4919FB7F894B2
:101140008C91611103C01095812301C0812B8C9378
:101150009FBF0F90DF91CF911F910F910895CF9373
:10116000DF93282F30E0F901E859FF4F8491F9010E
:10117000E458FF4FD491F901E057FF4FC491CC23BD
:1011800091F081110E941708EC2FF0E0EE0FFF1F85
:10119000EC55FF4FA591B4912C912D2381E090E067
:1011A00021F480E002C080E090E0DF91CF910895CB
:1011B0001F920F920FB60F9211242F933F938F938C
:1011C0009F93AF93BF938091580390915903A0913F
:1011D0005A03B0915B033091570326E0230F2D375C
:1011E00020F40296A11DB11D05C029E8230F039626
:1011F000A11DB11D20935703809358039093590369
:10120000A0935A03B0935B0380915C0390915D03BC
:10121000A0915E03B0915F030196A11DB11D809363
:101220005C0390935D03A0935E03B0935F03BF9153
:10123000AF919F918F913F912F910F900FBE0F9083
:101240001F9018952FB7F894609158037091590327
:1012500080915A0390915B032FBF08953FB7F89494
:1012600080915C0390915D03A0915E03B0915F0358
:1012700026B5A89B05C02F3F19F00196A11DB11DF1
:101280003FBF6627782F892F9A2F620F711D811D0E
:10129000911D43E0660F771F881F991F4A95D1F76C
:1012A0000895CF92DF92EF92FF92CF93DF936B017D
:1012B0007C010E942E09EB01C114D104E104F10468
:1012C00079F00E942E096C1B7D0B683E7340A0F3E1
:1012D00081E0C81AD108E108F108C851DC4FECCF11
:1012E000DF91CF91FF90EF90DF90CF9008957894A9
:1012F00084B5826084BD84B5816084BD85B582601B
:1013000085BD85B5816085BDEEE6F0E080818160B8
:101310008083E1E8F0E010828081826080838081B8
:1013200081608083E0E8F0E0808181608083E1EB90
:10133000F0E0808184608083E0EBF0E08081816078
:101340008083EAE7F0E0808184608083808182602E
:101350008083808181608083808180688083109217
:10136000C1000895CF92DF92EF92FF920F931F93E7
:10137000CF93DF936C017A01EB01E60EF71E00E0DC
:1013800010E0CE15DF0561F06991D601ED91FC9179
:101390000190F081E02DC6010995080F191FF1CFCA
:1013A000C801DF91CF911F910F91FF90EF90DF90D7
:1013B000CF9008956115710581F0DB010D9000203B
:1013C000E9F7AD0141505109461B570BDC01ED9186
:1013D000FC910280F381E02D099480E090E0089573
:1013E0000C94DA09DC01ED91FC910190F081E02D83
:1013F00009940F931F93CF93DF93EC016DE00E944C
:10140000F2098C016AE0CE010E94F209800F911F5F
:10141000DF91CF911F910F9108950F931F93CF9359
:10142000DF93EC010E94DA098C01CE010E94F909D8
:10143000800F911FDF91CF911F910F9108958F928F
:101440009F92AF92BF92CF92DF92EF92FF920F9353
:101450001F93CF93DF93CDB7DEB7A1970FB6F89464
:10146000DEBF0FBECDBF7C01C42EE52FCB01D22E37
:1014700019A221E02D1510F02AE0D22E8E010F5D69
:101480001F4F8D2C912CA12CB12C6C2D7E2FA501E2
:1014900094010E94D20C8C2DD29E801911240150EF
:1014A00011098A3014F4805D01C0895CF8018083E1
:1014B000211531054105510521F0C22EE32FCA0146
:1014C000E4CFB801C7010E94DA09A1960FB6F894DB
:1014D000DEBF0FBECDBFDF91CF911F910F91FF9067
:1014E000EF90DF90CF90BF90AF909F908F90089536
:1014F000CF92DF92EF92FF920F931F93CF93DF93E0
:10150000EC016A017B012115310579F4E881F9814B
:101510000190F081E02D642FDF91CF911F910F9109
:10152000FF90EF90DF90CF9009942A303105E9F4D5
:1015300077FF1AC06DE20E94F2098C0144275527FB
:10154000BA014C195D096E097F092AE0CE010E949B
:101550001F0A800F911FDF91CF911F910F91FF9074
:10156000EF90DF90CF9008952AE0B701A601CE0159
:10157000DF91CF911F910F91FF90EF90DF90CF906F
:101580000C941F0A9A01AB01662757FD6095762FD0
:101590000C94780A2115310541F4DC01ED91FC91A0
:1015A0000190F081E02D642F09940C941F0A9A0198
:1015B000462F50E060E070E00C94CA0A9A01AB013B
:1015C00060E070E00C94CA0A0E9477090E945E01F4
:1015D000CDEBDBE00E9496002097E1F30E94BD0B6B
:1015E000F9CFFC0124853585F901E05CFF4F80814E
:1015F0009181329620813181821B930B8F739927C1
:101600000895FC0184859585FC01E05CFF4F4081D5
:1016100051813296208131814217530741F0019068
:10162000F081E02DE80FF91F808190E008958FEFA1
:101630009FEF0895FC0184859585FC01E05CFF4FD8
:10164000408151813296208131814217530779F0D0
:10165000A081B181A80FB91F8C91208131812F5FAA
:101660003F4F2F7333273183208390E008958FEF0E
:101670009FEF0895FC0181A1882329F0A489B589F1
:101680008C9186FFFBCF11A20895CF93DF93FC01CD
:1016900026853785D901A05CBF4F8D919C9111970C
:1016A00001968F739927E901CE5BDF4F48815981FD
:1016B00084179507D9F30D90BC91A02DA20FB31FED
:1016C0006C93A685B785A05CBF4F11969C938E93B3
:1016D000A689B7892C9181E090E0078C02C0880F21
:1016E000991F0A94E2F7282B2C9381E081A30488A8
:1016F000F589E02D80818064808381E090E0DF9136
:10170000CF91089508951F920F920FB60F92112452
:101710002F933F934F938F939F93EF93FF938091DA
:10172000C00082FD1CC04091C600809106049091CB
:10173000070401968F7399272091080430910904BA
:101740008217930771F0E0910604F0910704EA53C1
:10175000FC4F4083909307048093060402C080915D
:10176000C600FF91EF919F918F914F913F912F91E3
:101770000F900FBE0F901F90189580E693E00E9487
:10178000F10A892B11F00C94820B08951F920F928D
:101790000FB60F9211242F933F938F939F93EF9344
:1017A000FF932091C2033091C3038091C4039091B1
:1017B000C5032817390731F48091C1008F7D8093CC
:1017C000C10014C0E091C403F091C503EE57FC4F73
:1017D00020818091C4039091C50301968F7399274E
:1017E0009093C5038093C4032093C600FF91EF91AB
:1017F0009F918F913F912F910F900FBE0F901F904F
:101800001895CF92DF92EF92FF92CF93DF93EC0186
:101810006A017B01EC89FD8981E090E008A002C0AB
:10182000880F991F0A94E2F7808360E874E88EE1DC
:1018300090E0A70196010E94D20C21503109410984
:1018400051095695479537952795211580E1380719
:1018500098F0EC89FD89108260E472E48FE090E0FA
:10186000A70196010E94D20C21503109410951096A
:101870005695479537952795E889F9893083EA8900
:10188000FB89208319A2EE89FF89408181E090E0E5
:101890009C010C8C02C0220F331F0A94E2F7422BEA
:1018A0004083EE89FF8940819C010D8C02C0220F8C
:1018B000331F0A94E2F7422B4083EE89FF8940816F
:1018C0009C010E8C02C0220F331F0A94E2F7422BB8
:1018D0004083EE89FF8920810F8C02C0880F991FF9
:1018E0000A94E2F7809582238083DF91CF91FF9065
:1018F000EF90DF90CF9008951092630310926203EF
:1019000088EE93E0A0E0B0E08093640390936503D9
:10191000A0936603B093670381E892E0909361031C
:101920008093600386EC93E090936D0380936C0347
:1019300082E893E090936F0380936E0385EC90E0D0
:10194000909371038093700384EC90E09093730301
:101950008093720380EC90E09093750380937403FE
:1019600081EC90E0909377038093760382EC90E093
:10197000909379038093780386EC90E090937B03B7
:1019800080937A0384E080937C0383E080937D03DB
:1019900087E080937E0385E080937F0381E08093DE
:1019A00080030895A1E21A2EAA1BBB1BFD010DC0E6
:1019B000AA1FBB1FEE1FFF1FA217B307E407F507FF
:1019C00020F0A21BB30BE40BF50B661F771F881FDB
:1019D000991F1A9469F760957095809590959B0171
:1019E000AC01BD01CF010895EE0FFF1F0590F491EA
:0819F000E02D0994F894FFCFEB
:1019F80003030025643A25643A25640025732025ED
:101A080064202564004F6B2C2054696D65203D20AF
:101A1800002C20446174652028442F4D2F5929201B
:101A28003D20005374617274696E672E2E2E004338
:101A38006F6E74726F6C20313A20307800436F6E8D
:101A480074726F6C20323A20307800436F6E747273
:101A58006F6C20333A203078005365636F6E64737F
:101A68003A20004D696E757465733A2000486F75A9
:101A780072733A20005765656B20446179733A2088
:101A8800004D6F6E7468733A200059656172733A3D
:101A980020004D696E75746520416C61726D3A2045
:101AA80000486F757220416C61726D3A2000446184
:101AB8007920416C61726D3A20005765656B6461ED
:101AC8007920416C61726D3A20004F6666736574C7
:101AD8003A20307800544D525F434C4B4F55545F79
:101AE8004354524C3A20307800544D525F415F467F
:101AF8005245515F4354524C3A20307800544D526D
:101B08005F415F5245473A20307800544D525F425A
:101B18005F465245515F4354524C3A203078005446
:101B28004D525F425F5245473A203078004A616E15
:101B380000466562004D617200417072004D617926
:101B4800004A756E004A756C0041756700536570F0
:101B5800004F6374004E6F76004465630000000018
:101B6800000005D304A804B004C304D20400000094
:0E1B780000450BB209F10A1A0B010B3A0B00E3
:00000001FF
